:10000000000204000000000004200000082000009E
:100010000C20000010200000142000001820000018
:100020001C200000202000002420000028200000C8
:100030002C20000030200000342000003820000078
:100040003C20000040200000442000004820000028
:100050004C200000502000005420000058200000D8
:100060005C20000060200000642000006820000088
:100070006C20000070200000742000007820000038
:100080007C200000802000008420000088200000E8
:100090008C20000090200000942000009820000098
:1000A0009C200000A0200000A4200000A820000048
:1000B000AC200000B0200000B4200000B8200000F8
:1000C000BC200000C0200000C4200000C8200000A8
:1000D000CC200000D0200000D4200000D820000058
:1000E000DC200000E0200000E4200000E820000008
:1000F000EC200000F0200000F4200000F8200000B8
:10010000FC20000000210000042100000821000064
:100110000C21000010210000142100001821000013
:100120001C210000202100002421000028210000C3
:100130002C21000030210000342100003821000073
:100140003C21000040210000442100004821000023
:100150004C210000502100005421000058210000D3
:100160005C21000060210000642100006821000083
:100170006C21000070210000742100007821000033
:100180007C210000802100008421000088210000E3
:100190008C21000090210000942100009821000093
:1001A0009C210000A0210000A4210000A821000043
:1001B000AC210000B0210000B4210000B8210000F3
:1001C000BC210000C0210000C4210000C8210000A3
:1001D000CC210000D0210000D4210000D821000053
:1001E000DC210000E0210000E4210000E821000003
:1001F000EC210000F0210000F4210000FFFFFF00CF
:10020000FFFFFF00FFFFFF00D0090000D009000042
:10021000D0090000D0090000D0090000D00900007A
:10022000D0090000D0090000D0090000D00900006A
:10023000D0090000D0090000D0090000D00900005A
:10024000D0090000D0090000D0090000D00900004A
:10025000D0090000D0090000D0090000D00900003A
:10026000D0090000D0090000D0090000D00900002A
:10027000D0090000D0090000D0090000D00900001A
:10028000D0090000D0090000D0090000D00900000A
:10029000D0090000D0090000D0090000D0090000FA
:1002A000D0090000D0090000D0090000D0090000EA
:1002B000D0090000D0090000D0090000D0090000DA
:1002C000D0090000D0090000D0090000D0090000CA
:1002D000D0090000D0090000D0090000D0090000BA
:1002E000D0090000D0090000D0090000D0090000AA
:1002F000D0090000D0090000D0090000D00900009A
:10030000D0090000D0090000D0090000D009000089
:10031000D0090000D0090000D0090000D009000079
:10032000D0090000D0090000D0090000D009000069
:10033000D0090000D0090000D0090000D009000059
:10034000D0090000D0090000D0090000D009000049
:10035000D0090000D0090000D0090000D009000039
:10036000D0090000D0090000D0090000D009000029
:10037000D0090000D0090000D0090000D009000019
:10038000D0090000D0090000D0090000D009000009
:10039000D0090000D0090000D0090000D0090000F9
:1003A000D0090000D0090000D0090000D0090000E9
:1003B000D0090000D0090000D0090000D0090000D9
:1003C000D0090000D0090000D0090000D0090000C9
:1003D000D0090000D0090000D0090000D0090000B9
:1003E000D0090000D0090000D0090000D0090000A9
:1003F000D0090000D0090000D0090000D009000099
:100400008FBE2000007F2400000188000000000053
:100410000A00070011000700000020000000E000B3
:100420000200320000000200000000007607020017
:10043000000000000040DA000000FE004440A90077
:10044000000020000000E000030032000000200057
:10045000A00188004440A80000000600E09C2000A5
:10046000010020001500370062004000E0804800D5
:10047000910188009001BA0062004000E0804800CD
:10048000910188009002BA0062004000E0804800BC
:100490000002EB006028E10004003A000059EB0084
:1004A0008301E900FDFF3E00040037006128E10000
:1004B000010032000082EB00050007009101880076
:1004C0001001BA000200E000E7FF3A00000005005A
:1004D000910188008002780062004000E0804800BE
:1004E0003559BA008301E900080032002559BA00E5
:1004F0008301E900050032000400E000F4FF32004F
:1005000015D9BA008301E900F1FF3A0000000600A6
:10051000810178000100E000270032000200E000C5
:1005200025003200E10F50000A00320003003900BC
:10053000E20F500020003A000D0037008008EB0069
:10054000B110780000002600510020000089BE0094
:100550000D00370000002600510020008089BE00F9
:1005600000002100010020000089BE0006003700C5
:1005700000002700510020008089BE0000002900F3
:10058000210020000089BE00F4FF200005002000AB
:100590001300620008003A001201BE00020062006F
:1005A00005003A00E00F5100E08F590002003200D0
:1005B0000500780001003700200020000000060040
:1005C000A8C6BF0001CCB300014060000014A00029
:1005D000A8E6B700D0C6BF00014060007040B3007D
:1005E000D0E6B700DEC6BF00014060000034A000C6
:1005F000DEE6B7009540A900E01320001012880045
:10060000100020002012880000002800001288003E
:10061000ECA2A800000006001200FA00881F780073
:10062000B00A2000E0B79F0066805700F0B79F0037
:100630003000200080BF9F000000EB0090BF9F00B3
:10064000A0BF9F0063805700B0BF9F00180020002C
:10065000C8BF9F00748057005001070080007800D9
:100660000000E00004003A005FF89700F24F5000ED
:100670000100320088007800010078004F04780003
:100680000080FA00000006001000FA00881F7800C1
:1006900000047800210020000000E0002F0032005C
:1006A00050002000F0B79F000000EB0080BF9F00CB
:1006B00090BF9F00A0BF9F00B0BF9F006480570005
:1006C000C0BF9F0010002000D0BF9F007280570065
:1006D00032010700800078000000E0001F003A00AF
:1006E000004C78004FF897000008A300010032008A
:1006F0001860A0004FF897000018A3000100320016
:100700001850A0004FF897000028A3000100320005
:100710001840A0004FF897000038A30001003200F5
:100720001830A0004FF897000048A30001003200E5
:100730001820A0004FF897000058A30001003200D5
:100740001810A0008000EB004FF897000004E000B4
:1007500002003D001800A0008000EB0001007800BE
:100760004F0478000080FA00000006001200FA0032
:10077000889FBE008A9FBE008C1F78000005BE00C7
:1007800002067800830478000300E0001A003200BB
:1007900003014000E08148000000200081002000AB
:1007A000800F5100818F590013003E008100070027
:1007B000E30F5000110032006E84570008017800EA
:1007C0000A00BE00C401070030002000A0B79F004F
:1007D000FCB79F0089BF9F00B8B79F00C0B79F00BC
:1007E0000000EB00D0B79F00E0B79F007C8057006F
:1007F000EA00070001003700200020004F067800C3
:100800004F05BE004F04BE000080FA000000060045
:100810001200FA00889FBE008A9FBE008C9FBE0017
:100820000005BE0082067800030678000300E000A1
:100830002E00320003014000E0814800000020004B
:1008400081002000800F5100818F590027003E0059
:10085000485ADD004850DE0000007200C858DE0033
:10086000C808DD000080FD00804078000040EB00FB
:100870000010B0000180B000800F5100818F59003E
:100880001A003E004B000700800478000000E000E2
:1008900017003A00200020005E0107008004780065
:1008A0000000E00012003A00708457000801780050
:1008B0000A00BE00880107002000200090B79F00BA
:1008C000E9B79F00F9B79F00A8B79F00300020004C
:1008D000B0B79F00CDB79F00DCB79F007E80570068
:1008E000AE000700800478000100370029002000D6
:1008F000090078004F06BE004F05BE004F04BE0041
:100900000080FA00000006001200FA00889FBE0076
:100910008A1F78000005780029002000F0072000D9
:10092000800F55001E003E0022000700E30F50001C
:1009300002003A008004780019003700000220000D
:1009400034010700800478000000E00014003A0041
:100950006A8457006150B8004C09DD00C400DE0015
:10096000810071004C00DD00080178005A01070089
:1009700000022000C0B79F0099BF9F00A9BF9F0041
:10098000D8B79F0030002000E0B79F00F9B79F0064
:1009900089BF9F007880570080000700800478009E
:1009A000090078004F0578004F04BE000080FA006F
:1009B000000006000200FA000F80E90032FF070085
:1009C000800078000000E00006003A0000042000EB
:1009D000FFB89700008060003100200001003A005D
:1009E0008000EB00010078000080FA0000000600A3
:1009F000000178000000EB00100198002001980031
:100A00003001980040019800500198009200780051
:100A100000022000808F5000400032000E003E0097
:100A2000E38F50002E00320005003E00E18F5000A1
:100A300026003200E28F50001B003A0031003700E0
:100A4000E58F50001C00320019003900E68F50007D
:100A500015003A0016003700B00A2000808F5000C1
:100A60003700320007003E007B005000808F5000AE
:100A70003D0032006F004000808F50000A003A00B5
:100A800041003700700C2000808F500008003200B9
:100A900071004000808F5000200032007F00500025
:100AA000808F500022003200200020003A003700E2
:100AB0000000EB00380037001000200030019800E3
:100AC000400198000000EB003300370010002000C8
:100AD00010019800200198000000EB002E00370064
:100AE0003000200010019800200198001000200024
:100AF0003001980000002100400198000000EB0048
:100B00002500370040002000100198003010200020
:100B1000200198000000EB001F003700300020008B
:100B200010019800200198000000EB001A00370027
:100B3000C0002000500198000000EB0016003700B4
:100B400030002000100198002001980010002000C3
:100B5000300198004001980070002000500198007A
:100B60000000EB000C00370030002000100198005E
:100B700020019800200020003001980040019800DA
:100B80000000EB0004003700300020003001980026
:100B9000400198000000EB00000006000E00FA0083
:100BA000889FBE0000047800200090000000E00054
:100BB00003003200180090000000E0008C003200BA
:100BC000480090000000E000030032003800900070
:100BD0000000E00086003200680090000000E000A5
:100BE00003003200580090000000E0008000320056
:100BF000F0845700980C7800090078007CFF07000B
:100C00000000E0007A003A0028009000C800900040
:100C1000810040002FB89700808F500074003C0086
:100C200019009000808F500071003500E80090009E
:100C30004FB89700808F50006D003C0002C8B30091
:100C40003FB89700808F50006900350041C2BF0057
:100C500067406000FDFF3A0040C2BF0002406000F4
:100C6000FAFF32006400370040128000F0B79F00A6
:100C700040C2BF000058A300FBFF3200EC82A80076
:100C8000ECA2A90040C2A900180078004012880018
:100C900028019000C80190000200E8000082410095
:100CA000E8029000050378008003EB003500370070
:100CB00040C2BF000018A3001A003A000200E00082
:100CC0000600320018009000B000FB0041128800BE
:100CD000100498000201E900120037000300E00050
:100CE0000700320038009000B000FB00411288007D
:100CF000300498008301E9000001EB00090037008F
:100D00000600E00003003A00060178008601780042
:100D100004003700471288000603E9000701780045
:100D20008701780040C2BF000068A30002003200C3
:100D3000100020001E00370040C2BF000058A30072
:100D400010003A000400E00004003200401280006D
:100D5000F0B79F000402E9000A0037000500E00038
:100D600002003A00050278000600370058009000A3
:100D70004112800001587800500498008502E90073
:100D80000002EB000200E000C9FF3A000300E000AF
:100D9000C7FF3A000500E000C5FF3A000400E0008C
:100DA000C3FF3A000600E000C1FF3A0006007800E9
:100DB0004042E200FEFF3D00ECA2A8005FB99700B0
:100DC0000200E000050032008000EB00000000009F
:100DD0008100E800828F5000FCFF3A00EC82A900FD
:100DE0000000CF000000EA004F00DE0006003700E0
:100DF000200020000400370040C2BF000058A300BC
:100E000099FF32009DFF37004F04BE000080FA00BA
:100E1000000006000200FA008000780000022000B6
:100E2000808F50000D00320004003E000100E900F8
:100E3000E10F500007003E0008003700700C200052
:100E4000808F50000500320071004000808F5000FC
:100E500002003200210020000E00370010000700C1
:100E6000800078000000E0000A003A000F80E900EE
:100E700005FE0700800078000000E00005003A0051
:100E8000000220007FB997000000610001003A00D5
:100E900011002000010078000080FA000000060028
:100EA0000E00FA006000200090BF9F000000EB00E1
:100EB000A0BF9F00B0BF9F00C0BF9F00D0BF9F00DA
:100EC000E0BF9F00F0BF9F006E80570033FF070018
:100ED0000080FA000000060001497800C801DE0029
:100EE0001341980020419800000006001800FA0005
:100EF000889FBE008A9FBE008C1F78000080EB0098
:100F00006019880050198800D902A800E882A90059
:100F1000E8A2A900E842A900E862A900E0020200F4
:100F2000000000000004EB00FA8557001CC0B3006D
:100F30000C030200000000000000E0003D003A0049
:100F40007E815700E1FD2F008F80400010002000BF
:100F500088020200000000000000E00035003A00B6
:100F60000B057800030120000B0178007FA8970093
:100F70008FB09700B60302000000000080047800E4
:100F80000000E0002B003A00903025007186200020
:100F9000BB0F1000AB8F18002A003A002FF097000B
:100FA000E14F500027003A004B009000DB0090001A
:100FB0002C000700E10F500002003A00C9F79F0023
:100FC00001003700CCF79F007FA897008FB09700F3
:100FD0004409DD004C00DE0000007100CC08DE009A
:100FE00084040200000000000040EB00A0F79F0016
:100FF000BCF79F00DA04020000000000E30F50007D
:10100000FCFF3200030120000A0178007FA897004E
:101010008FB097000804020000000000DA0402000C
:10102000000000000000E000FCFF3A0040A7A8001C
:10103000FFFF37000804E80080382100800F5400CB
:10104000BBFF3A0000200400000000000000EB009D
:101050004F0678004F05BE004F04BE000080FA0026
:10106000000006000800FA00889FBE008A9FBE00AC
:101070000004BE006C815700F08057000000EB00B8
:1010800088020200000000000000E00055003A0065
:101090002FB89700BFB89700880F5000898F58006D
:1010A00050003900A8BF9F00B9BF9F00F07F20000B
:1010B000000064000E00320000802F000000640079
:1010C000614AB800C021DD00020020006102B800C2
:1010D0000401710085817100008020000100200062
:1010E0000201400083814800A2BF9F00B3BF9F0060
:1010F0000000220000057800000020008005780034
:101100000A04BE000800440089804C000FB9970013
:101110009FB99700000141008181490082BF9F0073
:1011200093BF9F002FB99700BFB99700820F50005F
:10113000838F58002B003E0000015100818159002F
:10114000A2BF9F00B3BF9F00F07F2000020060009D
:101150002800320023003700220424008800780091
:10116000090078002B0007000FBA97009FBA97007C
:101170000801BE0080002000380007000000E000E9
:101180001800320000402000010020000804400048
:10119000898448002FB99700BFB9970000802F00BD
:1011A000F1FF2F000201400083814800A2BF9F0091
:1011B000B3BF9F0000802000010020000FBA9700FD
:1011C0009FBA9700040240008582480084BF9F00B8
:1011D00095BF9F00E00F5100E08F590003003200DF
:1011E000DDFF37000000EB00060037001000200094
:1011F00004003700E00F5100E08F5900FBFF320080
:10120000D5FF37004F05BE004F04BE000080FA0036
:10121000000006009301800090018800023B8800D6
:101220008108BB000700FC0051052000313B88000D
:10123000A10A2000313B880061E7A80000000000FF
:101240000000000001C8B30061C7BF00014060009A
:10125000FDFF3A0093018800000006004F10B00027
:10126000889FBE008A9FBE008C9FBE008E1F7800A4
:101270006044B8000205BE000406BE004800DD0060
:1012800080BF9F000007EB0006003A003C003700DB
:101290000000EB003B00370070805700808F51004A
:1012A0000C0039000310200002EF2F000F01410055
:1012B0000C00BE00B6030200000000000000E000C9
:1012C000F3FF3A000C10B0000D80B00003EF2F00C8
:1012D0008F8141001380FB0002F02F0002046400A4
:1012E00000047400134090004800DD00F10F20005E
:1012F0000104640000047400234090000080FB009F
:101300008284640080847400334090004800DD00D3
:101310008184640080847400E48141009B01880022
:10132000080DBB00098DBB0064074700620545003E
:10133000E0854D00810067000E003A001000240097
:10134000003B88000700FC0051052000313B88006D
:10135000A10A2000313B880061E7A80000000000DE
:101360000000000001C8B30061C7BF000140600079
:10137000FDFF3A000FB897008E0F5000C6FF3E00E9
:10138000100020004F0778004F06BE004F05BE003A
:101390004F04BE004F10B100000006000000000026
:1013A0000000FE00FFFFFF00FFFFFF00FFFFFF0048
:1013B000FFFFFF00FFFFFF00FFFFFF00FFFFFF0039
:1013C000FFFFFF00FFFFFF00FFFFFF00FFFFFF0029
:1013D000FFFFFF00FFFFFF00FFFFFF00FFFFFF0019
:1013E000FFFFFF00FFFFFF00FFFFFF00FFFFFF0009
:104000000022040000000000AC6304000200000075
:1040100074630400020000008263040002000000D8
:1040200090630400020000009E6304000200000090
:10403000AC63040002000000AC6304000200000056
:10404000AC63040002000000AC6304000200000046
:10405000F6D2040001000000AC630400020000007E
:10406000AC63040002000000AC6304000200000026
:10407000AC63040002000000AC6304000200000016
:10408000AC63040002000000AC6304000200000006
:10409000AC63040002000000AC63040002000000F6
:1040A0009E4204000200000056430400020000008B
:1040B000AC63040002000000AC63040002000000D6
:1040C000AC63040002000000AC63040002000000C6
:1040D000AC63040002000000AC63040002000000B6
:1040E000AC63040002000000AC63040002000000A6
:1040F000AC63040002000000AC6304000200000096
:10410000AC63040002000000AC6304000200000085
:10411000AC63040002000000AC6304000200000075
:10412000AC63040002000000DA4E0400020000004C
:10413000AC63040002000000CC4204000200000056
:10414000A243040002000000AC630400020000006F
:10415000AC63040002000000AC6304000200000035
:10416000AC63040002000000AC6304000200000025
:10417000AC63040002000000AC6304000200000015
:10418000AC63040002000000AC6304000200000005
:10419000AC63040002000000AC63040002000000F5
:1041A000AC63040002000000AC63040002000000E5
:1041B000AC63040002000000AC63040002000000D5
:1041C000AC63040002000000AC63040002000000C5
:1041D000AC63040002000000AC63040002000000B5
:1041E000AC63040002000000AC63040002000000A5
:1041F000AC63040002000000AC6304000200000095
:10420000AC63040002000000AC6304000200000084
:10421000AC63040002000000AC6304000200000074
:10422000AC63040002000000AC6304000200000064
:10423000AC63040002000000AC6304000200000054
:10424000AC63040002000000AC6304000200000044
:10425000AC63040002000000AC6304000200000034
:10426000AC63040002000000AC6304000200000024
:10427000AC63040002000000AC6304000200000014
:10428000AC63040002000000AC6304000200000004
:10429000AC63040002000000AC63040002000000F4
:1042A000AC63040002000000AC63040002000000E4
:1042B000AC63040002000000AC63040002000000D4
:1042C000AC63040002000000AC63040002000000C4
:1042D000AC63040002000000FA4204000200000087
:1042E000EE43040002000000AC6304000200000082
:1042F000AC63040002000000AC6304000200000094
:10430000AC63040002000000284304000200000027
:104310003A44040002000000AC6304000200000004
:10432000AC63040002000000AC6304000200000063
:10433000AC63040002000000AC6304000200000053
:10434000AC63040002000000AC6304000200000043
:10435000AC63040002000000AC6304000200000033
:10436000AC63040002000000AC6304000200000023
:10437000AC63040002000000AC6304000200000013
:10438000AC63040002000000AC6304000200000003
:10439000AC63040002000000AC63040002000000F3
:1043A000AC63040002000000AC63040002000000E3
:1043B000AC63040002000000AC63040002000000D3
:1043C000AC63040002000000AC63040002000000C3
:1043D000AC63040002000000AC63040002000000B3
:1043E000AC63040002000000AC63040002000000A3
:1043F000AC63040002000000FFFFFF00FFFFFF00AE
:104400002FF023000E7F24000E0188000000000022
:104410000C000700A0682500210020001100070003
:10442000000020000000E000020032000000020056
:104430000000000096620200020000000040DA0066
:104440000000FE004440A900003024000000E0000D
:104450000300320010002000A00188004440A800A2
:104460000000060091018800800078000000EB0049
:1044700015003700E280400032A0B4009101BA007C
:10448000E280400032A0B4009102BA00E280400015
:1044900032A0B4000002EB00472BDE00F507B200AB
:1044A000602CE10004003A000059EB008301E900B0
:1044B000FDFF3E00040037006128E10001003200EA
:1044C0000082EB00040007001101BA000200E000C6
:1044D000E8FF3A00000006003159BA008301E90004
:1044E0000C0032002159BA008301E90008003200B3
:1044F0000400E00003003A00E280400032A0B40073
:10450000F5FF370011D9BA008301E900FAFF3A003C
:104510008100E800E180400032A0B4000000060005
:1045200098F0040001000000ECEF0400010000001E
:10453000B4EA040001000000342704000200000077
:104540004027040002000000AEEA04000100000061
:10455000A8EA040001000000A2EA04000100000033
:104560009CEA040001000000A03F040000000000DD
:10457000F822040000000000B8240400000000003D
:10458000E4240400000000009E530400000000002A
:1045900074360400000000000A00FA00881F78004A
:1045A00002047800E20F500005003E000801780088
:1045B00090F58100904102000200000008003700E1
:1045C00032002000A2BF9F00B0BF9F00C1BF9F006C
:1045D000D8BF9F006C80570000C0DA005FBC970016
:1045E000080078004F0478000080FA000000060000
:1045F00090017800E00F510002003A000308E90042
:10460000060037008080EB000041EB00934F110063
:10461000020032000308E8009300FB00010078006C
:10462000000006000200FA00F0BF9F00EA81570078
:104630003FB997008F80E900802F22000200070019
:104640000080FA0000000600F4874700889FBE0043
:104650008A9FBE008C9FBE008E1F780002047800E7
:1046600080B79F0091B79F00830078007C8057003F
:10467000611207008004EB00C9B79F00B8B79F0024
:104680005D022000FEFF2700BFB597001B407800A9
:104690000086FB000C04FB000C06EA004F66DE00FF
:1046A0000800780080100700E00F50001B00320067
:1046B0004FB097000000E800C0B79F001200200034
:1046C0008000EB001FB097008FB19700030001003E
:1046D000000578000A00780073100700E00F500012
:1046E000F3FF3A00CFB09700E10F45000800320019
:1046F0008100E900C1B79F00000178008A007800BE
:104700001FB097008FB1970003000100220037000F
:104710008100E900C1B79F001F0037008D0F5400D2
:1047200002003A000C05E900190037000C0578007A
:10473000170037004FB097000000E800C0B79F0097
:10474000120020008000EB001FB097008FB197008F
:1047500003000100800078001B00FB00808F5000E8
:104760000A003200E18F40007A0032004FB097001B
:104770000000E900C0B79F000001EB001FB09700E8
:104780008FB1970003000100720037008B05E8002D
:104790000A05E900E7FF3B003FB197000C0141002B
:1047A000B2B79F008D0F540003003200E00F540099
:1047B000B5FF3A0067003700924078000040EB00F8
:1047C000A3C2B30083CF500003003A000201E80007
:1047D000B2B79F0001407800E0EF9F000000EB00BF
:1047E000E0B79F00090037006FB197008E0F5100AE
:1047F000040032006A11B9000203B1000101410056
:10480000E2B79F000A05E800BAB79F003FB59700DE
:104810001A4478008800FB0000FD2F0001004000D2
:10482000E90F5000F0FF360040E92300C9090700F6
:10483000E00F5000030032000A05E800BAB79F00FD
:104840000100370000447800F8EF9F003FB0970068
:1048500081C6B300814F540004003A00904F140009
:104860000B003A00E6C0500006003700C1C6B30096
:10487000814F540006003A00904F140004003A00A3
:10488000E5C04000F1EF9F000000E800B0B79F00D6
:104890003FB097009000FB00B0E92300AD0907008E
:1048A000E00F50001A003A004FB097000000E800F7
:1048B000C0B79F00120020008000EB001FB09700DF
:1048C0008FB1970003000100000478000800780011
:1048D000F50F0700E00F5000F3FF3A00CFB097004C
:1048E000E10F4400080032008100E900C1B79F00D9
:1048F00000017800880078001FB097008FB1970002
:1049000003000100020037008100E900C1B79F00E9
:1049100000FE2F000F004000AA040700E00F500027
:1049200003003C00E08F54000A003A000800370002
:104930000FF09700E04F5000010032008904E800BA
:104940003FB097000000E800B0B79F004EFF37006F
:1049500080047800090078004F0778004F06BE00F9
:104960004F05BE004F04BE004F01B100000006001D
:10497000889FBE000004780001007800820478005F
:10498000880178000901780011002000DB11070080
:10499000890F5000010032000004EB00080078008D
:1049A0004F04BE00000006000000FA00E881570036
:1049B0004FB9970041B42300804B22001800070034
:1049C0000080FA0000000600881F780002047800CA
:1049D00008017800E7080700080040004F0478004D
:1049E000000006000000FA00881F7800000478002C
:1049F000EA8157003FB9970088007800404E2200B6
:104A000007000700E00F5000020035000041EB00F6
:104A1000027478004F0478000080FA00000006005D
:104A20006200FA00889FBE008A9FBE008C9FBE0075
:104A30000005780081047800020478008300780083
:104A400020F92F000F0040006B110700EA8F9F0034
:104A5000F98F9F000000EB00809F9F008DDF2300F7
:104A6000CCDE2300FBFF2700184078000085FB0008
:104A70008A04FB000A05EA004F55DE0050022000C0
:104A8000808F54000D003200E10F55000B003A00FA
:104A90000A017800880078007F889700EF899700E6
:104AA00003000100F08F9F00E00F50008D003200E6
:104AB0000F9897000000E800809F9F000A044400C0
:104AC00050022000808F540004003200E08F540018
:104AD000E5FF3A000F989700830037000000EB00D5
:104AE000E0979F00D0979F00C0979F00B0979F00CE
:104AF000A0979F0090979F00A09F9F0007003700FE
:104B00000D005000000040006C007800AF98970046
:104B100000807000A09F9F000804E800984478007F
:104B20008900FB0080DF23000A090700E00F500026
:104B3000F3FF3A00A1C2B30081CF54000E003A0047
:104B40009F8897000180E900908F9F0010007800F7
:104B5000909F9F00E00F500005003D000000EA001C
:104B6000909F9F002F9897000020A000A09F9F007B
:104B70000804E8000F003700909F9F0008003700EE
:104B80001F9897008B0F5000040032006A00B90094
:104B90000003B10002004000909F9F000804E8005D
:104BA0001801FB0000FD2F0002004000E90F50003B
:104BB000F3FF3600E0C2B300984F1000030032004C
:104BC0000080EB00F0979F001A003700A0C2B300EE
:104BD000D84F100007003A009F8897000180E90035
:104BE000908F9F0010007800F0979F000804E80065
:104BF000100037000000EB00F0979F00080037001E
:104C00007F9097008B0F5000040032006A00B900BB
:104C10000003B10002004000F0979F000804E80084
:104C20001801FB0000FD2F0002004000E90F5000BA
:104C3000F3FF3600984478008900FB0040DE230033
:104C4000C4080700E00F5000020032000804E8002A
:104C50000100370080447800E9779F0080C6B300E8
:104C600080CF540004003A0098CF14000A003A00A4
:104C70006640500006003700C0C6B30080CF540025
:104C800005003A0098CF140003003A006540400048
:104C9000E0779F000804E8001801FB0083FB2F0069
:104CA0008F81410021F92F008F80400040F92F00B3
:104CB0000F00400011000700E00F500009003A000B
:104CC00081FB2F008F80400040F92F000F00400033
:104CD0008E150700E00F5000020035000804E800C0
:104CE00061FF37000080EB004F06BE004F05BE009D
:104CF0004F04BE000080FA0000000600889FBE003E
:104D00008A1F780000047800824478000305780048
:104D100070C6B30080CF540021003C0000C0E90001
:104D200080CF5400D7003D007240500080CF540027
:104D3000430132000D003C006C40500080CF540015
:104D400056013C0000C0E90080CF5400CD003D007A
:104D500050C2B30080CF54004D0132007C4040006F
:104D600080CF54004D013A00C600370010C6B30092
:104D700080CF5400C300320004003C006940500062
:104D800080CF540045013A006C00370030C6B300B4
:104D900080CF5400180032000040E80009003700BE
:104DA00000C7B30080CF54001601320008003C0059
:104DB00000C0E90080CF5400DB0032005F003C00FF
:104DC0006540500080CF540034013A000F00370096
:104DD00050C7B30080CF54005800320063404000F9
:104DE00080CF5400550032006540500080CF540001
:104DF0002A013A00120137001181E9008208780087
:104E000078009000127578002A0137002860900021
:104E1000C2C6B300824F500009003A00110078006A
:104E200064025000840878001400BE001402900050
:104E30004FA2DE00040178008401780012003700E0
:104E400012C7B300824F500003003200A2C6B30065
:104E5000824F500006003A001101780068005100AE
:104E6000800878005001BE004000BE0006003700F8
:104E70001180E9008008780010007800CF80DE0003
:104E80000101780082017800009CBE000294BE00FF
:104E90002862900085C6B300854F52000E00320094
:104EA00025C6B300854F520005003A000000FB0004
:104EB000CF80DE0001017800820178000900370010
:104EC00045C7B300854F520003003200E6C24200DE
:104ED000854F520005003A00CF80DE0001017800C6
:104EE00082017800009CBE000294BE003802BE0021
:104EF0002803BE0078009000D1C2B300E00F52003A
:104F0000E08F5A00E00F5B00E08F5B000800350087
:104F1000881090006281600002003200B1C2B300CC
:104F200003003700E18060005100320001C2B3008D
:104F3000017578000000E8004C0037002860900000
:104F4000C2C6B300824F500007003A00110078003B
:104F500064025000840878001400BE000001EB00D9
:104F6000820178001200370012C7B300824F500050
:104F700003003200A2C6B300824F500006003A0080
:104F80001101780068005100800878005001BE00CF
:104F90004000BE00060037001180E900800878005C
:104FA0001000780001002000020020000300200013
:104FB000009CBE000294BE002862900085C6B3002B
:104FC000854F52000E00320025C6B300854F5200B7
:104FD00005003A000080FB000100200002002000D4
:104FE000030020000900370045C7B300854F520079
:104FF00003003200E6C24200854F520005003A002D
:10500000010020000200200003002000009CBE00E0
:105010000294BE0008109000680060001400320086
:105020003800BE002801BE00E00F5000E08F58009D
:10503000E00F5900E08F59000D00320080C7B30027
:1050400080CF54000300320080C5B30080CF5400ED
:1050500007003A00F800900000C3B30000F57800A4
:105060000100E800097578000180E80070049800EC
:1050700078009000000545006A0498008940780097
:105080006C00370028619000C0C4B300804F51000D
:1050900006003A001101780068005100800878008D
:1050A0005001BE004000BE0005003700110178002D
:1050B00064005100800878001000BE00E71C070063
:1050C000009CBE000294BE00B800900078009000E2
:1050D000E08F500002003D00D1C2B300080037004D
:1050E000881090006281600002003200B1C2B300FB
:1050F00003003700E18060000400320001C2B30009
:10510000017578000000E8007004980078009000B5
:10511000000545006A0498008900FB00080078003B
:105120006A0007006500370028609000C3C6B3001E
:105130001181E900834F5000260032000A003C0034
:10514000E4C15100834F50001F00320083C1E800CA
:10515000834F500013003200E8C15100834F5000CC
:1051600022003A000A00370043C7B300834F5000C3
:1051700015003200E6C14100834F5000120032009A
:10518000E9C15100834F500018003A000500370074
:105190008208780012007800485C90000848780087
:1051A00046003700820878001202780068089000F4
:1051B000CF80DE000101780082017800009ABE00F5
:1051C0000292BE003D00370082087800120078008D
:1051D0000900370082087800120178006808900002
:1051E000CF80DE000089BE00340037001180E90066
:1051F0008008780010007800680C9000080878009B
:105200002E0037001180E900800878001000780037
:10521000CF80DE000101780082017800009CBE0092
:105220000294BE0078009000000545006A049800D2
:1052300081C7B30008007800EE1207001F00370096
:105240001180E90080087800100578006A04980051
:10525000D80C9000E08F540004003D000A00780054
:10526000590707008004780007003700090178001B
:105270008000EB000A00780009100700E00F5000E2
:10528000010032008A045000190C98000B0037000E
:1052900078009000097578000600370078009000CB
:1052A00000054500E0CF540001003A0059C2B300A8
:1052B000094D78000000E800700498000000EB0041
:1052C0004F0578004F04BE0000000600EF03B00059
:1052D000889FBE008A9FBE008C9FBE008E1F7800F4
:1052E00000057800014778003A00BE002A01BE00A0
:1052F000D0B79F00E1B79F00F2B79F0083BF9F0028
:105300005A089000E00F500002003D0060002000AD
:10531000500D98008A00780060FB2F000F004000BD
:105320008A12070080017800E28F510009003A00DC
:1053300030002000100D9800B0C9B30000474700AE
:1053400080BA2300E14F57000C003E0040BA230012
:105350000A003700E08F51000E00340030002000BA
:10536000100D9800B0C9B3000047470000BB2300F0
:10537000E14F570001003E00C0BA2300EA00900050
:10538000B0487800B06878001040780090409800ED
:1053900002013700E08F510004003A0062FB2F0049
:1053A0000F01410003197800F80037006022B800AF
:1053B0006033B8005FB09700EFB097007FB19700FF
:1053C0008FB997007C1B0700E00F500009003D00DB
:1053D0005FB29700EFB297007FB397008FBB970043
:1053E00007F0A200D4B79F00E5B79F00F6B79F0073
:1053F00087BF9F003F9A9700CFA2DE007259270017
:10540000030020000400BE00D91C0700026A280027
:1054100013002000AC03070064015000B29F9F00FE
:1054200018003B0063011100C0FF2F000004610061
:105430008802EA00B59F9F000006EB004DBB2300E9
:105440005FB09700EFB097007FB197008FB99700DA
:105450000900370061026400050032004362DD008C
:10546000048246005403BE004402BE00491C0700EB
:105470000884D1000C06E800E00F5400F5FF3C0062
:105480001F003700E00F510023003200C8FF2F003B
:1054900008046100B89F9F006022B8000600200049
:1054A00007FF23000006EB004DBB23000400BE00F5
:1054B0000601BE00090037006102640005003200E9
:1054C0004362DD00048246005403BE004402BE0075
:1054D000301C07000884D1000C06E800E00F5400DF
:1054E000F5FF3C000002BE000203BE005FB0970063
:1054F000EFB097007FB197008FB99700381B070076
:105500000002BE000203BE00D4B79F00E5B79F00B3
:10551000F6B79F0087BF9F005A09900060C6B3008E
:10552000804F5700040032006100200060C4B300C7
:10553000804F570002003A00BF9A9700EA8042006D
:1055400082814000F38F51000100340033012000BC
:1055500002C3B300827F9F009DFB2F008F86460011
:10556000824578000E43780086EF9F00030778009D
:10557000350037005FB09700EFB097007FB197001C
:105580008FB99700D41B07000004BE0068075700BE
:105590004240A90012003400FB1B07000002BE00BD
:1055A0000203BE005FB09700EFB097007FB1970095
:1055B0008FB997006C1C07006022B80046782D0058
:1055C00077192400F31B07000002BE000203BE008F
:1055D000D4B79F00E5B79F00F6B79F0087BF9F0035
:1055E000E88646008C0020000801BE000C00370051
:1055F000A40020000500200000FE2F000F00400046
:10560000120F07000FB097009FB097002FB19700BF
:10561000BFB1970005C3B300856641000001BE001D
:10562000E00F5100E08F5900040034000C06E9003F
:10563000EFFF3B00010037008B6678000C06E900A5
:10564000FDFF3B00E8864600E00F57000A003400EB
:105650006022B8006033B8005FB09700EFB09700E9
:105660007FB197008FB99700D81A070080007800A3
:10567000E08F5000BFFF3C000FEF970092FB2F0020
:105680000F014100828256003F9B97006703430051
:10569000B69F9F0000C3B300050037008502E900F4
:1056A000BF9B97008703E900B79F9F000201E800B6
:1056B000924F1000F9FF3200DA08900060C6B30084
:1056C000804F57000300320060C4B300804F570082
:1056D00003003A003F9897008001E8000900370076
:1056E0001300200050C6B300804F57000500320061
:1056F0000E40780050C4B2008081FB008301E900B5
:10570000CF19DE0081814100858F510001003400F6
:1057100085017800E08F51001C00350004C3B30000
:10572000858F510006003D00E2C0790069424200C9
:1057300040C3B30080CF500001003C0069425200DA
:1057400083027800010037008301E9008502E90047
:105750008500410011437800844F5300FAFF320066
:1057600090C3B300804F520001003A008648E80021
:10577000E08F520005003D000201E9008301E800CE
:10578000BF9897008100E800B19F9F008E00FB004A
:105790003F9A97000A007800060007004F0778003C
:1057A0004F06BE004F05BE004F04BE00EF03B10020
:1057B000000006000E00FA00889FBE008A9FBE000F
:1057C0008C9FBE00000478008144780002067800B7
:1057D0000305780084057800E00F550002003C00C6
:1057E0001A002000ACEF230060C6B30080CF540045
:1057F0000E00320060C4B30080CF54000B003200B2
:1058000070C6B30080CF54000300320070C4B300F0
:1058100080CF540081003A00E48F45007F003500BE
:1058200058089000808F55007C003D008B05E800F3
:1058300060C6B30080CF54001000320060C4B300D3
:1058400080CF54000D003200081090006800600006
:1058500004003A0058089000800F550001003D00F8
:105860005A0C9800580890000B005000500C9800FB
:1058700002003B000000EB00500C9800180890005C
:10588000E8009000E08F550026003C0002C3B30002
:10589000827078000000E800100C9800D808900092
:1058A000E08F500003003C0088109000E88060000A
:1058B0000500320068019000E1C2B3000171780078
:1058C0000000E800100C9800580890008B00EA00D7
:1058D000810F500001003D008005EA008B00EA00C6
:1058E000210C9800808545005B0C98008A8F55003C
:1058F000010034008A0578003B0C9800E800900015
:1059000018089000008040000B0178008C0078009F
:1059100018050700580890008B0550004B0C9800A4
:10592000910037008B0F550018003D0000804000AB
:105930000A0178008C0078000E0507009808900096
:1059400081004500110C98000A8555002A0C98002A
:1059500058089000E00F500003003C000810900031
:10596000680060000600320068019000E0C2B300E9
:1059700000F17800380890000000E800300C980032
:1059800058089000400C98007700370000804000D5
:105990000B0178008C007800F604070018089000CE
:1059A00000804500100C98000B055500D8089000A9
:1059B000E08F500003003C0088109000E8806000F9
:1059C0000500320068019000E1C2B3000171780067
:1059D0000000E800100C980058089000800F550057
:1059E0000100340000057800E800900018089000DD
:1059F000008040008B0046000A017800DD040700AB
:105A0000180890000A004000100C980058089000F8
:105A10000A0550002A0C980053003700180890001F
:105A2000E80090009C7078000000E800100C9800DE
:105A3000D8089000E08F500003003C0088109000D0
:105A4000E88060000500320068019000E1C2B30008
:105A5000017178000000E800100C980058089000D0
:105A6000E00F5000100034000A05E900800F5500D7
:105A70000100340000057800E8009000180890004C
:105A8000008040008C00E8000A017800B90407009B
:105A9000180890000A004000100C98005808900068
:105AA0000A0550002A0C9800E800900018089000A1
:105AB00000804000095878008006E800E08F55001B
:105AC00004003500B1C2B300014878000D0678002B
:105AD00004003700D1C2B300014878000D067800F9
:105AE0008B05EA008004EB000B003700A2002000C9
:105AF0008B00780070805700700407000FBD97007E
:105B00009FBD97008B4078007A80570001F07C00A1
:105B10008904E8008A057800E08F5500F3FF3C0017
:105B2000E08F540009003A000D06780000C3B3006E
:105B3000005E7800050037008904E9007A8157008B
:105B400062C07C0001C3B300015E4000E08F5400DE
:105B5000F9FF3A00E800900018089000008040002B
:105B6000000656003C0C980008109000740060007D
:105B7000F00F50000E003A00980890007800900056
:105B800000804000A808900001004000B808900084
:105B900001004000C808900001004000F808900093
:105BA000810F500002003D0000805000000C980062
:105BB0004F06BE004F05BE004F04BE000080FA0035
:105BC00000000600881F7800000478000040EB0009
:105BD00000549800380090001040780091C6B3003F
:105BE000814F5000220032000E003C00EEC05000F9
:105BF000814F50008900320005003C0051C2B300C3
:105C0000814F50006A00320081C5B3001300370095
:105C100031C6B300814F5000130032008140E800CC
:105C20000E00370001C7B300814F500007003C0051
:105C30008140E900814F50000D003D008140E900A6
:105C4000814F500079003A000C00370051C7B30073
:105C5000814F500006003200E3C04000814F5000E9
:105C600072003A00020037008000EB006C00370041
:105C700008007800531507006D003700E8489000D1
:105C800010002000E0CF500069003A00F848900072
:105C9000C3C6B3002801900083CF50003500320006
:105CA0000A003C00E4C1510083CF50002B003200B9
:105CB000A0C6B30080CF50001A00320068405000E8
:105CC00080CF500032003A000A00370043C7B300CB
:105CD00083CF500021003200A0C7B30080CF500016
:105CE0001A0032006940500080CF500028003A006E
:105CF00007003700280090000080E9002004980089
:105D000010007800084C9000084878002600370002
:105D1000280090000080E90020049800100278001C
:105D2000030037000281E900220498001202780083
:105D300048009000CF80DE000101780082017800E9
:105D4000009ABE000292BE00170037000281E900EF
:105D50002204980012007800110037000281E90047
:105D60002204980092007800480490008808780087
:105D70002F0037000281E900220498009200780089
:105D800048019000CF91DE008288BE0028003700D5
:105D9000280090000080E90020049800100078009E
:105DA0004804900008087800100020002000370008
:105DB000480090000000E800400498009801780036
:105DC000120020008000EB0018009000030001008A
:105DD000800078001000200052022000828F5000C6
:105DE0001300320048009000E18F400007003200AD
:105DF0000000E90040049800980178000001EB00E1
:105E00001800900003000100080037000000E900BE
:105E10004004980001007800050037008080EB0006
:105E20000800780072160700010037000000EB0040
:105E30004F0478000000060003F0A200889FBE0017
:105E40008A9FBE008C1F7800B0010700B7013300A5
:105E50006450E1004F0032006420E1005200320043
:105E600003826C0007003B000905D0000306D00048
:105E7000820F54000C065D0002003900020032005F
:105E800089017800030678008582550004003D00F2
:105E90000003FD008103FD008502EA008B854200BE
:105EA000840F720002003B0060001000E0801800C8
:105EB0006011B8000005EB007A28E1000A00390003
:105EC00006007800C75DDD00F707B2008780750027
:105ED0002D003700828171000A01780061056000A1
:105EE0008180D1000080D3008502E900F9FF3B00EA
:105EF000060440008784480002003B006004140050
:105F0000E0841C000988A300070032008A81710028
:105F100082817100610164008904D1000884D3008A
:105F20008B05E800170037000978A30013003A003A
:105F30000B00E000130034008B05E9000804440066
:105F400089844C000A4474000978A3000D003A00CB
:105F50000B00E000070034008B05E9000804440052
:105F600089844C0001003A000B0020000978A3004E
:105F7000F7FF32000001EB00020037008281710060
:105F80000A017800260107000CF0A70001F0A0002C
:105F90006F0137006420E10002003A00838F6C003B
:105FA0006F0133000801BE000200BE006801370027
:105FB000889FBE008A9FBE008C1F78005301070097
:105FC0001002200002003B0000408800570137000B
:105FD0008A0062006408E10002003A000040880084
:105FE0005F0137006108E100FCFF32000800BE00DD
:105FF000030478007200070001F0A1000900070007
:1060000008F0A600040037000001BE00910424003F
:10601000B0FD200088FF070009F0A70001F0A200F2
:106020004B013700889FBE008A9FBE008C9FBE0038
:106030000004BE00200107000800BE0089067800A9
:106040006420E10008003900040032000160A00073
:1060500012022000024088005300370091FC230008
:10606000B0FD20004E0037000006EB0009F0A10053
:1060700003F82300020020000800BE00A100070072
:106080000600340001F82300000020000801BE00D3
:106090004B0007000004BE002C0020000800BE00DA
:1060A00093E82300320A2300960007001200340010
:1060B0000801BE00D1FD2300703D2B005FFF0700EB
:1060C0000005BE00B3F32300F27A26000800BE00EC
:1060D0003401070003F823000200200056FF0700E8
:1060E0000801BE0055FF07000A01BE00340007008A
:1060F0000004BE000C06E8000800BE0001F0A1008C
:1061000002002000039823007E0007000800BE0064
:10611000160035000801BE00220107000005BE0080
:1061200032CD2C0043FB230044FF0700809FBE00BC
:106130001269280003D52B000A00BE0019010700D0
:10614000620F210013EF2B003CFF07000A01BE0085
:10615000140107004F01BE00190007000801BE002E
:10616000100107000801BE0034FF07000C00E0002A
:106170000B0032000C10A70001F0A200B2FD2000BD
:1061800093FC23006260E1000400320022A9200099
:1061900063F023000C10A70063F8230027FF07001B
:1061A0000DF0A70001F0A2004F06BE004F05BE0093
:1061B0004F04BE00000006000081EB002D013700F7
:1061C000889FBE008A9FBE008C1F7800CF0007000A
:1061D000D600330003866C006450E1002E003200CC
:1061E0006420E100330032006150E1002F003200F2
:1061F0006120E1003100320085855500EB07B000D9
:1062000009002000080420000500370008044400AD
:1062100089844C000A0031000603430087834B0049
:106220000001530081815B00F8FF33000203BE00D0
:106230000800A0000804440089844C00F6FF3900DF
:10624000C639DD0083017300010032001300200015
:106250008904D1000884D3000998A3000500320006
:106260000800A7000300A0008904D1000884D3001F
:106270008B05E8008904D1000884D3000001EB00FD
:106280000281D2006600070001F0A1000CF0A70017
:1062900001F0A000AE0037006420E100B000320041
:1062A0000801BE000200BE00F7FF37006120E100D8
:1062B000AB0032006000B800F3FF370000002000A0
:1062C00001F82700F0FF3700839F68000100E0001D
:1062D00002003D0060001000E08018000300E000B4
:1062E00002003D0060011100E081190081010700FA
:1062F0004F00E00002003B0060001000E08018004A
:106300000000060014002000B4013700F4FF2F0045
:10631000B20137000001BE00670007000470A7004B
:1063200003F0A1006509B100160032000D00350030
:106330006828E10006003500F0FF2F00F1FF27007C
:106340000300E00013003B000100280000000500EE
:1063500000004000818048008502E900FCFF3A000F
:1063600008003700F88F420002003C008000EB007C
:10637000000005008100D1000080D3008502E80004
:10638000FCFF3A000300E00002003B006000100048
:10639000E0801800000006000001BE004600070073
:1063A0000470A70003F0A10003F8A30013003A0053
:1063B0006509B10010003200090035006928E100CC
:1063C0000200350001002800000005000000400028
:1063D000818048008502E900FCFF3A0000000600C9
:1063E000F88F4200050035008100D1000080D30005
:1063F0008502E800FCFF3A00000006008000EB0088
:10640000000005004F89DE00820178008E01370010
:106410006011B8009C013700040020006F013700B4
:1064200081002000618055000B003D000B00200022
:1064300061FE2F000100E1001D0034008281710027
:10644000610164008904D1000884D3000000E800E1
:10645000FAFF3A0071002000610064000300700040
:10646000020060000900320061044400E0844C0036
:106470000988A500050032008B05E8006808E100E6
:1064800002003A008904D1000884D300F20F2000F2
:106490000258E10005003D00C75DDD00F907B200CC
:1064A0008980750008007800000006000BF82700BE
:1064B0008B00780000000500C70ADE00F107B2007B
:1064C000F50FB20008003200E1CF420002003200B6
:1064D0000170A00024000500810F7000010032004F
:1064E0000408050044000500810F700002003A0016
:1064F000140005008502E9000000400081C048004A
:10650000FCFF3B000170A000240005000004BE0059
:10651000E9FF07000003BE000405BE000200BE0044
:10652000E5FF0700844F7500000006000200BE0072
:106530006450E100050036006420E10002003600EE
:106540000968A30001003A000800BE000160A00035
:106550004F0678004F05BE004F04BE000000060045
:10656000F0FF2F00F1FF2700F9FF3700809FBE00EA
:10657000821F78000001EB00F1000700CF027800D5
:10658000808ABE000001BE004F00BE002AFE3A0015
:106590000470A6006000B80003F0A70001F0A0009E
:1065A00000000600889FBE008A9FBE008C1F7800F6
:1065B000D6FF0700DDFF330003866C006450E10066
:1065C000240032006420E100270032006150E10025
:1065D000220032006120E100210032008B85420060
:1065E000EB07B1000134B800003AB80008044200DB
:1065F00089844A00013AB8000030B8008880400021
:1066000009014A0004003300000040008180480076
:10661000020149008B05E900C909DD008301700012
:106620000100320013002000C814DE004814DD0011
:106630004709DE001200B200C808DE0008847000BE
:1066400077FF070001F0A1000CF0A70001F0A00007
:10665000BFFF37006120E100C1FF32000801BE002A
:106660000200BE00F7FF37006150E100FCFF3A0076
:10667000BBFF3700889FBE008A9FBE008C9FBE0074
:10668000820578000004BE008BFF07000800BE00F2
:106690006420E1000700390002003A00F1FF270002
:1066A000F0FF2F000160A0001202200002408800CD
:1066B000550037006120E10003003A000B00A700FD
:1066C00001F823005000370001F0A1000200210072
:1066D000936424000BFF07000800BE00040035008F
:1066E000B2FD2000930C2400160107000004BE0038
:1066F0000005EB000B00A6004F0DDE0001F0A1002D
:106700000004BE0032982F0023EA2300A5FF0700F3
:106710000001EB0003F023000B00A70003F82300A7
:10672000C6FD0700FBFE07000000A7000A00A2004C
:1067300034FF07000B00E0000300320002002000DD
:1067400003F02300BCFD070001F0A2000006BE001C
:10675000020020009304240092FF07000801BE00FD
:10676000B6FD0700809FBE000C00BE0022A22A00DA
:10677000D3A723008BFF07004F01BE00AFFD07002A
:106780000004BE0001F0A1000200200003982300D5
:10679000DCFE07000800BE00190035000001BE0045
:1067A00080FF07000006BE00B2C52900E362230097
:1067B0007CFF070022222B00F3942B009FFD070093
:1067C0000C01BE0077FF0700E273280083C023009E
:1067D0009AFD07000C01BE0072FF070042AA2A00C2
:1067E000A3E22B0095FD07000C01BE006DFF070022
:1067F0000801BE006BFF07000801BE008FFD070007
:106800000A00A70001F0A2004F06BE004F05BE001F
:106810004F04BE00000006000001EB0095FF3700AA
:10682000889FBE008A9FBE008C1F78000004BE00B7
:1068300021FF07000478A30026003A006120E10050
:106840002500320009F8A30025003A006420E10089
:1068500021003200F507B1000508A3000200320054
:1068600000004000818048006044B8000310200010
:10687000020020000000400081804800080544001C
:1068800089854C000A0541008B8549000A055000A6
:106890008B855800030033000A00BE000204740018
:1068A000838474008301D1000281D300830F7100BF
:1068B000F0FF3A008904D1000884D3006001490048
:1068C00082017800C1ADDE00FB07B000D4FE0700F6
:1068D0001FFF37000960A0000800BE001CFF370042
:1068E0001202200002408800F0FF2F00F1FF270075
:1068F00017FF37006022B800060220000000D00019
:106900008180D2000482D2008582D2000000A000E3
:106910000202520083825A00030031000202420048
:1069200083824A000000A1000603E900F3FF3A0059
:1069300000000600EFFF07000400BE000000060094
:10694000889FBE008A9FBE000003BE00DAFE0700DB
:106950008505780082815200020020006220E1005B
:1069600004003A00F307B100040035007718E10095
:10697000040035000600BE00140037006000B800B7
:106980000F003700F50F2000FAFF2F008502D1001D
:106990000A85D3008301E900FCFF3B00818462008B
:1069A00000046500890F7400F2FF32008582EA005E
:1069B0000A85EA00818462000004650098FE0700F1
:1069C00007F0A70001F0A0000081EB000200E0004A
:1069D0004F05BE004F04BE0000000600889FBE00A9
:1069E0008A9FBE00841F7800C8FE07004F00780011
:1069F00011003300F0FF2F00838F6C0006003B0076
:106A0000040565000A00A7000800370009F0A60089
:106A10001000200008003700820F5400838F5C00B4
:106A2000030039001000200001003E00000020009B
:106A300009F0A7000000EA004F05BE004F04BE00A9
:106A40000000E00000000600881F780003047800C2
:106A50000300E00007003D0060001000E080180027
:106A600060011900E081190002003B0001F02D00D7
:106A7000030037000400070008F0A70001F0A000A1
:106A80004F04780000000600889FBE008A9FBE0069
:106A9000008270000402710004827100260032003E
:106AA0000004BE000200BE006011B8006B092000A7
:106AB000950220000182CF000A0039000541B10093
:106AC0000082CF00070039000541B1000982CF00E4
:106AD000040039000541B1000882CF0001003900EF
:106AE0000541B10005425200120032000A003B008D
:106AF00082817100610164008100D1000080D300B7
:106B00008984D3000884D3008B05E8000442E800A0
:106B1000F7FF3A00070037000804440089844C005E
:106B200000004800818048008B05E9000442E9002C
:106B3000F9FF3A003AFE07004F05BE004F04BE00C1
:106B4000000006000400200000003700889FBE00FF
:106B50008A9FBE008C1F78004F26DD006BFE070069
:106B600072FE33006120E100430032006250E10018
:106B700041003E003E0039006420E1003C0032004C
:106B8000058255000F003B000402E80038003A007F
:106B9000800F5300818F5B00350034000800BE0079
:106BA00003F0A10001F0A60003F0A0000CF0A70084
:106BB000A2FC070066FE37000603430087834B00F4
:106BC0000C4646000005530081855B00020033003F
:106BD0000A03BE000C00A0000402E900F6FF3B001F
:106BE000850578000602430087824B0004003A00C6
:106BF0006000B80009F0A70001F0A00054FE3700C3
:106C00000002520081825A000704E00004003300B1
:106C10000603430087834B008B05E900FAFF37002A
:106C2000090578000604BE000203BE006011B8002A
:106C3000FBFD0700E00F5200E08F5A00070035000F
:106C400002003C000C08A300040032000601BE0054
:106C500003F0A0000CF0A70078FC07000A8568008C
:106C600001F0A1000AF0A70001F0A00038FE3700F3
:106C70000800BE0036FE3700100220000CF0A6000F
:106C80000040880036FE3700100020005400070046
:106C900010002000140007006011B8008000EB0015
:106CA00037013700A20020008000EB00040337000A
:106CB000A20020008000EB00010337008001780073
:106CC000811F7800110009008200D8008001FD00BA
:106CD000CF007800030878000299B90002815000C3
:106CE00012009800000006000200FA0008003700B9
:106CF0000181400073F68100630179008100E800A2
:106D000081F68900F0BF9F00020001007FB8970064
:106D100081F6810092F68100828F5000F4FF3900E5
:106D200081CD230071F689002102200091F68900AF
:106D3000DE1407000B003700104278009141780004
:106D4000834F520004003200100020000800310080
:106D50000080EB00000006000000E8008100E80071
:106D60000201E900E00F5100F3FF3A000200780051
:106D7000000006008001780002003700B159780059
:106D80000201E900E00F5100FCFF3A00000006009C
:106D90008001780002003700815978000201E90083
:106DA000E00F5100FCFF3A000000060041B4230050
:106DB000CC06370041B42300F306070080007800BA
:106DC0000080EB00E08F50000400350041B4230048
:106DD000A0002000C30607004F80DE000000060070
:106DE0000800FA00889FBE0080047800110020008F
:106DF000090078003E00070000047800E10F44001D
:106E000035003200E10F540035003200E00F54002D
:106E1000060032008000EB00090078003400070013
:106E200009007800080001002D0037006022B8003A
:106E30006033B800A4BF9F00B5BF9F00C6BF9F00CE
:106E4000D7BF9F006148B90061005000E080580042
:106E5000E50F5000E08F58001A003E00006001006E
:106E6000050037000D003700090037000500370026
:106E70000D0037000F0037001024240021452500A5
:106E80000E00370060042500510422000B0037007B
:106E900090C42400C10422000800370090E42400BC
:106EA000410522000500370030552400716425009B
:106EB000020037004055240021D52400A0BF9F00C8
:106EC000B1BF9F00C1B623006C805700AE0607001B
:106ED0001000200084FF0700080078000100370040
:106EE0000000EB004F04BE000080FA000000060026
:106EF0000001E9000080EB00E50F510006003E00B4
:106F0000808F5000040032000201410083E823001A
:106F100063007900813179000000060000017800EB
:106F2000010037000201E8008041EB0092CF110020
:106F3000FCFF3A00020037000201E8008100E8008F
:106F40009141780003497800E0CF5100FAFF3A0000
:106F50000000060003003700E04F5100050032003A
:106F60000000E80010417800814F5100FAFF3A001C
:106F7000000006000000050004003700E04F51004B
:106F8000090032000000E8008100E80010417800AC
:106F9000914F5100F9FF3200100020000300310032
:106FA0000080EB00000006000000EB00000006007F
:106FB000800178003141780082597800E04F51001B
:106FC000FCFF3A0000000600800078000100370056
:106FD0008100E8000041EB00914F1100FCFF3A00F6
:106FE000008050000000060080017800010037009A
:106FF0008301E8000042EB00934F1200FCFF3A00CF
:1070000003003700845978008100E8000201E9009C
:10701000E00F51000300320011427800E04F5200AF
:10702000F8FF3A008049EB00000006000C00370032
:107030009041780091CF51000400320010002000F0
:107040000C0031000080EB0000000600E0CF510092
:10705000070032000000E8008100E8000201E900BA
:10706000E00F5100F2FF3A00020078000000060035
:107070000000EB00000006008001780003003700EC
:10708000845978008100E8000201E900E00F510016
:107090000600320011427800E04F5200F8FF3A003B
:1070A000020037008059EB000201E900E00F5100B7
:1070B000FCFF3A0000000600889FBE000104780033
:1070C00018417800E04F51000F00320009003700EE
:1070D0008802780000027800D5417800E0CF5100A6
:1070E00009003200D4CF1100FBFF32000000E8009D
:1070F000010037008204FB008900780095FF07003B
:10710000E00F5000F2FF3A004F04BE0000000600FE
:10711000889FBE0081047800E00F500002003A0012
:10712000C8F7810001003700000478000800BE00A5
:1071300082060700000444000040EB00984F100056
:1071400004003A0060EF2300C0F789000004EB0060
:10715000080037000800BE00580607000000440081
:107160008040EB0090CF1000010032000058EB008F
:10717000C0F78900080078004F04BE000000060038
:107180000E00FA00889FBE008A9FBE008C1F780008
:10719000A0BF9F00010578000204BE0080057800B2
:1071A0008A0078006C8057003601070000027800E2
:1071B000680662000430A100E10F520013003A009B
:1071C000F48157000A017800AFB897000B007800EF
:1071D00040000700E00F500002003A006000B800D5
:1071E000030037000FB897009FB8970085FC070091
:1071F000C0B79F00D1B79F006FB19700FFB1970054
:10720000080141008981490016003700E20F520051
:1072100018003A0014002000F48157000A01780099
:10722000AFB897000B0078004A020700E00F50004B
:1072300002003A006000B800030037000FB8970062
:107240009FB897006FFC0700C0B79F00D1B79F00A1
:107250006FB19700FFB1970078805700DA060700FA
:107260000801BE004FB09700DFB097005D06070031
:107270000C0037000000200001F82700E30F520047
:10728000050032006000B800E40F520005003A002B
:10729000F0FF2F00F1FF2700C0B79F00D1B79F007C
:1072A00002003700C0B79F00D1B79F004FB09700D2
:1072B000DFB09700E00F56000100320001F0A2009D
:1072C0004F0678004F05BE004F04BE000080FA0054
:1072D00000000600EA874700889FBE008A9FBE0024
:1072E0008C9FBE008E1F7800D0B79F0001047800ED
:1072F000E2B79F00830578006922B900040778008F
:107300000006EB0001C3B300020037000804E800E8
:107310001C00200098CF1000FCFF3200800DEB0015
:10732000BB1578008B0478000005EB0044C3B30064
:1073300095002000280037008E0F550019003D00F1
:10734000110009000505D8008000FD00E00F500085
:1073500003003A00E4844400800CEB00B914780088
:10736000184678000C06FB00CFE6DE000C03B100E7
:107370000D80B100A2002000030020001900BE0013
:1073800084BF9F00F5B79F00F9140700801C4600DA
:1073900081944E000A05E8000FBA9700FFB29700EB
:1073A0000B00370010002000010020009B0D400062
:1073B000DB9548008E0F550005003A00984F1200EB
:1073C00003003400990C4000D99448000A05E800F5
:1073D0000804E8001C002000984078000100FB0031
:1073E0000003B100E90F5000D3FF36008E0F5500A7
:1073F000010034000E057800E3C2B30083CF5000D3
:1074000001003A000804E800E00F55002B003A00A4
:10741000070037000081EB008081EB009B0D4100ED
:10742000DB9549000804E8001C002000010037003B
:1074300001C3B30098CF1000F6FF32001F003700E1
:107440008E0F55001A003D00110009000405D800F8
:107450008000FD00E00F500003003A00E484440087
:10746000800CEB00B9147800184678000C06FB007D
:10747000CFE6DE000C03B1000D80B100A2002000B9
:10748000030020001900BE0084BF9F00B81407004D
:10749000801C460081944E000A05E8000080EB0045
:1074A0008080EB009B0D4000DB9548000FBA9700F1
:1074B0000804E8001C0020000100370094002000B0
:1074C0001800FB000003B100E90F5000DCFF36009C
:1074D0000C0778009D002000809FBE00110009006D
:1074E0000D05D800810678004F00BE00E08F5600E1
:1074F00017003200E98616001901BE00E00F5100A6
:10750000E08F5900070032000D00E9004200DD0065
:1075100041DC2300008040001000BE0094140700EE
:10752000808CBE000A854600616AB9009B1D12006E
:107530009B951A000600370069055500920020004F
:10754000030020009B0D4100DB954900E4845400BA
:10755000E80F5500040034001902BE00E00F52008D
:10756000E08F5A00F4FF3200E00F56003400320082
:107570009840780053C6B30083CF50000300320018
:1075800053C4B30083CF50002C003A00D844780095
:10759000B1C2B30081CF540003003200D3C2B300A4
:1075A00083CF540002003A000804E80001003700CD
:1075B000814478006000B8000007EB00FC0F2E004B
:1075C0005D5F2000100037008C0F50008D8F580039
:1075D0000B003C00A20020000300200084BF9F009D
:1075E000631407000003B1000180B1000FBA9700D7
:1075F0000402FB00CFA2DE000000420081804A00AE
:107600000804E8001E002000184278000401FB0076
:107610000203B100E90F5100EBFF3600D3C2B30003
:1076200083CF540002003A0060001000E080180090
:107630009B0D4000DB954800010037000C077800E7
:10764000EFB19700E08F510005003200E00F5700C6
:1076500001003A005FB497006FB097000808780007
:1076600092002000110009000205D8004F077800A1
:107670004F06BE004F05BE004F04BE00AF00B10074
:1076800000000600889FBE008A9FBE008C9FBE003F
:1076900080067800810578001D0478008804780051
:1076A000010037008904E800194578000A00FB0052
:1076B0007D04070080007800E08F5000F9FF3A0059
:1076C000D2C2B300824F550003003A008904E8009B
:1076D0008100200004003700B2C2B300824F550081
:1076E00001003A008904E80019417800E3C6B300BC
:1076F000834F510003003200E3C4B300834F5100B5
:1077000025003A00D940780012C6B30082CF50005D
:10771000040032000000EB0012C4B30082CF50001E
:107720005B003A00D9407800E2C6B30082CF500037
:10773000040032000000EB00E2C4B30082CF50002E
:1077400053003A000904780081C2B300D8CF10007A
:107750000A003A0088047800FCC5B3005945780057
:107760000A00FB0042040700E00F5000FBFF3A0054
:107770008C4F5500F9FF3200010037008804780073
:107780004000200091C2B30099CF100040003A00A1
:107790000904E8003E00370093C6B300834F510050
:1077A0000300320093C4B300834F51003C003A0001
:1077B00059417800E3C6B300834F51000400320002
:1077C0000000EB00E3C4B300834F510030003A00E7
:1077D0005941780063C6B300834F51000400320062
:1077E0000000EB0063C4B300834F510028003A004F
:1077F00009047800010078003000B300D840780018
:1078000092C6B30082CF50000300320092C4B3008E
:1078100082CF50001E003A00880078005141780065
:10782000E3C6B300834F510003003200E3C4B3004A
:10783000834F510016003A005141780093C6B300BF
:10784000834F51000300320093C4B300834F5100B3
:107850000F003A005141780043C7B300834F5100F5
:107860000300320043C5B300834F510008003A00C3
:107870005141780093C7B300834F51000300320099
:1078800093C5B300834F510001003A000104E800A2
:10789000E08F550005003200880D780003003700A6
:1078A000010078000000A00009047800880E78002C
:1078B0004F06BE004F05BE004F04BE00000006008C
:1078C000F2874700889FBE008A9FBE008C9FBE0043
:1078D0008E1F7800D0B79F00F1B79F000203780099
:1078E00000077800010037000E07E8001E4478000A
:1078F0000800FB0086BF9F00EB0307000FBB97004B
:10790000E00F5000F8FF3A00C8EF9F00D3C2B30069
:10791000834F54000400320083C1E900084078001E
:10792000834F500002003A000E07E80001003700C4
:10793000C3EF9F00E00F530005003500E10F530037
:107940000300320043022000830F5300070034007D
:107950006044B800FFB09700E08F5000760032001E
:107960005FB197008208780073003700E00F530082
:107970000E003200F00F53001A003A0003C3B300A8
:107980009ECF110017003A009E41900085C7B300BA
:1079900085CF51000300320085C5B30085CF51006B
:1079A00010003A000E87E8000E003700A600200005
:1079B00003C3B3009ECF11000A003A009E4190001D
:1079C00082C7B30082CF510004003200860020003D
:1079D00085C5B30085CF510002003A000E87E8004C
:1079E0000601200003C3B3000E0078000100370039
:1079F0000000E80090CF1100FDFF32008006780003
:107A0000ADB79F006044B800C0BF2300A0E79F004F
:107A10006135B9000E003700AFE097000146500015
:107A20000A01BE000800BE0086BF9F005013070079
:107A30000C02FB00CFA2DE008D06E800B8B79F0065
:107A4000C9B79F0004044000858448000FBB97001D
:107A50001D00FB0086BF9F009B0307000FB9970026
:107A600080007800C0BF23000D0607000FBB970001
:107A7000E00F5000E8FF3A008D0F570007003A0072
:107A80006044B800FFB19700E08F51002A00320037
:107A90005FB097008009780027003700AFB09700EB
:107AA0008181560010C2230060407B000000FB0073
:107AB000008051001600330010003A000C02FB0059
:107AC000CFA2DE000402540085825C00840F5400C3
:107AD000858F5C00090039006131B9000400BE00E7
:107AE00084FB07000001BE003FB09700CFB09700B5
:107AF000800F5100818F59000500320020022000C4
:107B0000004088000084EB008084EB000600370012
:107B1000D0C2B300CFE8970080CF500002003A00F7
:107B200060041400E0841C007FB19700E00F510056
:107B3000010032000D0978000800BE004F077800F0
:107B40004F06BE004F05BE004F04BE002F01B1001E
:107B500000000600EA874700889FBE008A9FBE009B
:107B60008C9FBE008E1F7800D0B79F000104780064
:107B7000E2B79F00030578006722B9008406780009
:107B80000006EB0001C3B300020037000804E80060
:107B90001C00200098CF1000FCFF3200000DEB000D
:107BA0003A1578008A0478008005EB00E3D42300BE
:107BB0002B0037008D8F550017003D00740020000A
:107BC000801F7800110009008405D8004F0078005C
:107BD000E08F500003003A00E4844400800CEB0086
:107BE000B91478001902BE00442BDD00CC23DE005E
:107BF000870373004423DD0045D6230005005000B1
:107C0000634278000402FB00CFA2DE00841C430024
:107C100085944B000F003700140020000500200061
:107C20001A0D42005A954A008D8F55000A003A00FD
:107C300045D6230005005000E3407800E7CF500010
:107C4000050034001000200001002000990C4000C5
:107C5000D99448008B05E8000804E8001C002000C7
:107C6000184778008E00FB006201200040D62300F8
:107C7000F3B79F008A050700FFB19700E00F50009F
:107C8000CCFF3A008D8F5500010034008D0578003F
:107C9000E1C2B300814F570001003A000804E80038
:107CA000E08F55002B003A00070037000081EB0001
:107CB0008081EB001A0D41005A9549000804E80044
:107CC0001C0020000100370001C3B30098CF100052
:107CD000F6FF32001F0037008D8F55001A003D005F
:107CE000801F7800110009008305D8004F0078003C
:107CF000E08F500003003A00E4844400800CEB0065
:107D0000B91478001902BE00442BDD00CC23DE003C
:107D1000870373004423DD0044D623000400500091
:107D20006E4278000402FB00CFA2DE00841C4300F8
:107D300085944B008B05E8000080EB008080EB0011
:107D40001A0D40005A9548000804E8001C00200065
:107D50000200370073002000EED423009800FB00DF
:107D60006201200040D62300F3B79F004C050700B6
:107D7000FFB19700E00F5000D7FF3A008C01780068
:107D800074002000801F7800110009008405D800CD
:107D90004F007800E08F500014003200E7801000A0
:107DA0004208DD001902BE000000E90003003300B4
:107DB0000402420085824A00FBFF3700848CBE002B
:107DC0008B854000610AB9001A1D12001A951A002D
:107DD00006003700E78555007400200005002000EC
:107DE0001A0D42005A954A00E4845400E68F55006B
:107DF000040034001902BE00E00F5200E08F5A0068
:107E0000F4FF32001A03BE00423ADD00CE32DE003B
:107E1000850272004232DD00048DBE00E00F560084
:107E2000360032009840780003C7B30083CF50007B
:107E30000300320003C5B30083CF50002E003A0088
:107E4000D8447800B1C2B30081CF5400030032009F
:107E5000D3C2B30083CF540002003A000804E80004
:107E600001003700814478006000B8008001EB0019
:107E7000FC0F2E005D5F2000120037008C0F5000B9
:107E80008D8F58000D003C00A20020000300200050
:107E9000F4B79F0085BF9F00351207000003B100B3
:107EA0000180B1000E03FB00CFB3DE0000004300F1
:107EB00081804B008FBA97007FB297000804E800DA
:107EC00013002000184778000E01FB000203B100E8
:107ED000E90F5100E9FF3600D6C2B30086CF540047
:107EE00002003A0060001000E0801800041D40000D
:107EF00005954800010037008C017800EFB297002B
:107F0000E08F520005003200E08F510001003A007E
:107F10005FB497006FB097000808780072002000E7
:107F2000110009008205D8004F0778004F06BE00F7
:107F30004F05BE004F04BE00AF00B10000000600B8
:107F4000889FBE000004780018009000820478002A
:107F5000808F5400010036008004780018007800FB
:107F60000901780083FB0700188C4400180090007A
:107F70008904500019049800080078004F04BE00DE
:107F8000000006000400FA00E08F500003003A00F1
:107F90000F80E900E0BF9F0002003700E0BF9F00B4
:107FA0008100E900F1BF9F00E480570000FA230040
:107FB00004000700EFB897008048EB000080FA004B
:107FC000000006006200FA00889FBE008A9FBE0083
:107FD0008C9FBE00000578008104780002047800C0
:107FE0008300780020F92F000F00400002040700F2
:107FF000EA8F9F00F98F9F000000EB00809F9F0099
:108000008DE42300CCE32300FBFF27001840780019
:108010000085FB008A04FB000A05EA004F55DE00DC
:1080200050022000808F54000D003200E10F5500F7
:108030000B003A000A017800880078007F889700DA
:10804000EF89970003000100F08F9F00E00F5000C0
:108050008D0032000F9897000000E800809F9F007D
:108060000A04440050022000808F540004003200B3
:10807000E08F5400E5FF3A000F9897008300370027
:108080000000EB00E0979F00D0979F00C0979F00F3
:10809000B0979F00A0979F0090979F00A09F9F0080
:1080A000070037000D005000000040006C00780011
:1080B000AF98970000807000A09F9F000804E80020
:1080C000984478008900FB0080E42300A1FB0700AE
:1080D000E00F5000F3FF3A00A1C2B30081CF54007B
:1080E0000E003A009F8897000180E900908F9F0062
:1080F00010007800909F9F00E00F500005003D00A9
:108100000000EA00909F9F002F9897000020A00099
:10811000A09F9F000804E8000F003700909F9F0079
:10812000080037001F9897008B0F500004003200A2
:108130006A00B9000003B10002004000909F9F0058
:108140000804E8001801FB0000FD2F0002004000B9
:10815000E90F5000F3FF3600E0C2B300984F100063
:10816000030032000080EB00F0979F001A003700F8
:10817000A0C2B300D84F100007003A009F889700B4
:108180000180E900908F9F0010007800F0979F0019
:108190000804E800100037000000EB00F0979F0093
:1081A000080037007F9097008B0F500004003200CA
:1081B0006A00B9000003B10002004000F0979F0080
:1081C0000804E8001801FB0000FD2F000200400039
:1081D000E90F5000F3FF3600984478008900FB0057
:1081E000A0EB23005BFB0700E00F50000200320011
:1081F0000804E8000100370080447800E9779F0018
:1082000080C6B30080CF540004003A0098CF140019
:108210000A003A006640500006003700C0C6B300AE
:1082200080CF540005003A0098CF140003003A00B4
:1082300065404000E0779F000804E80083FB2F00C2
:108240008F8141001841780021F92F008F80400074
:1082500040F92F000F00400011000700E00F500010
:1082600009003A0081FB2F008F80400040F92F0069
:108270000F00400025080700E00F50000200350005
:108280000804E80061FF37000080EB004F06BE00E5
:108290004F05BE004F04BE000080FA00000006003B
:1082A000889FBE008A1F780000047800824478000E
:1082B0000305780070C6B30080CF540021003C0055
:1082C00000C0E90080CF5400D7003D00724050004C
:1082D00080CF5400430132000D003C006C40500040
:1082E00080CF540056013C0000C0E90080CF54000C
:1082F000CD003D0050C2B30080CF54004D0132008C
:108300007C40400080CF54004D013A00C600370049
:1083100010C6B30080CF5400C300320004003C00FC
:108320006940500080CF540045013A006C0037008E
:1083300030C6B30080CF5400180032000040E8007F
:108340000900370000C7B30080CF54001601320087
:1083500008003C0000C0E90080CF5400DB00320080
:108360005F003C006540500080CF540034013A006B
:108370000F00370050C7B30080CF540058003200C0
:108380006340400080CF54005500320065405000EB
:1083900080CF54002A013A00120137001181E90010
:1083A0008208780078009000127578002A01370062
:1083B00028609000C2C6B300824F500009003A0006
:1083C0001100780064025000840878001400BE0098
:1083D000140290004FA2DE000401780084017800AE
:1083E0001200370012C7B300824F50000300320062
:1083F000A2C6B300824F500006003A001101780077
:1084000068005100800878005001BE004000BE00A6
:10841000060037001180E90080087800100078001D
:10842000CF80DE000101780082017800009CBE0050
:108430000294BE002862900085C6B300854F5200AA
:108440000E00320025C6B300854F520005003A00E9
:108450000000FB00CF80DE0001017800820178007F
:108460000900370045C7B300854F520003003200B2
:10847000E6C24200854F520005003A00CF80DE0080
:108480000101780082017800009CBE000294BE00C9
:108490003802BE002803BE0078009000D1C2B300AD
:1084A000E00F5200E08F5A00E00F5B00E08F5B00AE
:1084B00008003500881090006281600002003200E0
:1084C000B1C2B30003003700E18060005100320008
:1084D00001C2B300017578000000E8004C003700CD
:1084E00028609000C2C6B300824F500007003A00D7
:1084F0001100780064025000840878001400BE0067
:108500000001EB00820178001200370012C7B300AF
:10851000824F500003003200A2C6B300824F5000C9
:1085200006003A00110178006800510080087800C8
:108530005001BE004000BE00060037001180E90077
:108540008008780010007800010020000200200060
:1085500003002000009CBE000294BE002862900030
:1085600085C6B300854F52000E00320025C6B30009
:10857000854F520005003A000080FB0001002000FA
:1085800002002000030020000900370045C7B300A7
:10859000854F520003003200E6C24200854F520070
:1085A00005003A0001002000020020000300200026
:1085B000009CBE000294BE0008109000680060009D
:1085C000140032003800BE002801BE00E00F500049
:1085D000E08F5800E00F5900E08F59000D00320085
:1085E00080C7B30080CF54000300320080C5B300C1
:1085F00080CF540007003A00F800900000C3B30099
:1086000000F578000100E800097578000180E800B5
:108610007004980078009000000545006A049800F6
:10862000894078006C00370028619000C0C4B30016
:10863000804F510006003A00110178006800510097
:10864000800878005001BE004000BE0005003700E1
:108650001101780064005100800878001000BE000D
:108660007E0F0700009CBE000294BE00B800900080
:1086700078009000E08F500002003D00D1C2B300AE
:10868000080037008810900062816000020032000C
:10869000B1C2B30003003700E18060000400320083
:1086A00001C2B300017578000000E8007004980072
:1086B00078009000000545006A0498008940780021
:1086C00008007800710307006500370028609000FB
:1086D000C3C6B3001181E900834F50002600320069
:1086E0000A003C00E4C15100834F50001F003200DB
